{
  "address": "0xe7f1725E7734CE288F8367e1Bb143E90bb3F0512",
  "abi": [
    {
      "inputs": [
        {
          "internalType": "address",
          "name": "_pricefeed",
          "type": "address"
        }
      ],
      "stateMutability": "nonpayable",
      "type": "constructor"
    },
    {
      "inputs": [],
      "name": "FundMe_SendMinEth",
      "type": "error"
    },
    {
      "inputs": [],
      "name": "FundMe__FaildWithdraw",
      "type": "error"
    },
    {
      "inputs": [],
      "name": "FundMe__NotOwner",
      "type": "error"
    },
    {
      "anonymous": false,
      "inputs": [
        {
          "indexed": true,
          "internalType": "address",
          "name": "owner",
          "type": "address"
        },
        {
          "indexed": true,
          "internalType": "uint256",
          "name": "totalAmount",
          "type": "uint256"
        }
      ],
      "name": "AmountWithdraw",
      "type": "event"
    },
    {
      "anonymous": false,
      "inputs": [
        {
          "indexed": true,
          "internalType": "address",
          "name": "from",
          "type": "address"
        },
        {
          "indexed": true,
          "internalType": "uint256",
          "name": "amount",
          "type": "uint256"
        }
      ],
      "name": "FundingAmount",
      "type": "event"
    },
    {
      "stateMutability": "payable",
      "type": "fallback"
    },
    {
      "inputs": [],
      "name": "fund",
      "outputs": [],
      "stateMutability": "payable",
      "type": "function"
    },
    {
      "inputs": [],
      "name": "withdraw",
      "outputs": [],
      "stateMutability": "nonpayable",
      "type": "function"
    },
    {
      "stateMutability": "payable",
      "type": "receive"
    }
  ],
  "transactionHash": "0xb260f1c79050883903805e60596a534073a3390ff0df91613a1f6001e07c29c1",
  "args": [
    "0x5FbDB2315678afecb367f032d93F642f64180aa3"
  ],
  "numDeployments": 1,
  "solcInputHash": "04e6ab8bd8b16e119dac16649f2748dc",
  "bytecode": "0x60a060405234801561001057600080fd5b50604051610a09380380610a098339818101604052810190610032919061010f565b806000806101000a81548173ffffffffffffffffffffffffffffffffffffffff021916908373ffffffffffffffffffffffffffffffffffffffff1602179055503373ffffffffffffffffffffffffffffffffffffffff1660808173ffffffffffffffffffffffffffffffffffffffff16815250505061013c565b600080fd5b600073ffffffffffffffffffffffffffffffffffffffff82169050919050565b60006100dc826100b1565b9050919050565b6100ec816100d1565b81146100f757600080fd5b50565b600081519050610109816100e3565b92915050565b600060208284031215610125576101246100ac565b5b6000610133848285016100fa565b91505092915050565b6080516108ab61015e600039600081816101f301526103ae01526108ab6000f3fe60806040526004361061002d5760003560e01c80633ccfd60b14610046578063b60d42881461005d5761003c565b3661003c5761003a610067565b005b610044610067565b005b34801561005257600080fd5b5061005b6101da565b005b610065610067565b005b6802b5e3af16b18800006100a460008054906101000a900473ffffffffffffffffffffffffffffffffffffffff163461047090919063ffffffff16565b116100db576040517f3f40f1de00000000000000000000000000000000000000000000000000000000815260040160405180910390fd5b343373ffffffffffffffffffffffffffffffffffffffff167f0540e9c8e5b59a19de98204c90d3c50c263d1f53e6dc2f7bb228daa03eda4d7760405160405180910390a334600160003373ffffffffffffffffffffffffffffffffffffffff1673ffffffffffffffffffffffffffffffffffffffff168152602001908152602001600020600082825461016e91906105ef565b925050819055506002339080600181540180825580915050600190039060005260206000200160009091909190916101000a81548173ffffffffffffffffffffffffffffffffffffffff021916908373ffffffffffffffffffffffffffffffffffffffff160217905550565b3373ffffffffffffffffffffffffffffffffffffffff167f000000000000000000000000000000000000000000000000000000000000000073ffffffffffffffffffffffffffffffffffffffff161461025f576040517f579610db00000000000000000000000000000000000000000000000000000000815260040160405180910390fd5b473373ffffffffffffffffffffffffffffffffffffffff167ff930c12e28fc1da72d8278e065f1ed8d14c43d29ec7e1bbaec8a76467c26450160405160405180910390a360005b60028054905081101561034957600060016000600284815481106102cd576102cc610623565b5b9060005260206000200160009054906101000a900473ffffffffffffffffffffffffffffffffffffffff1673ffffffffffffffffffffffffffffffffffffffff1673ffffffffffffffffffffffffffffffffffffffff16815260200190815260200160002081905550808061034190610652565b9150506102a6565b50600067ffffffffffffffff8111156103655761036461069a565b5b6040519080825280602002602001820160405280156103935781602001602082028036833780820191505090505b50600290805190602001906103a992919061050f565b5060007f000000000000000000000000000000000000000000000000000000000000000073ffffffffffffffffffffffffffffffffffffffff16476040516103f0906106fa565b60006040518083038185875af1925050503d806000811461042d576040519150601f19603f3d011682016040523d82523d6000602084013e610432565b606091505b505090508061046d576040517f311ab31a00000000000000000000000000000000000000000000000000000000815260040160405180910390fd5b50565b60008261047c8361048e565b610486919061070f565b905092915050565b6000808273ffffffffffffffffffffffffffffffffffffffff1663feaf968c6040518163ffffffff1660e01b815260040160a060405180830381865afa1580156104dc573d6000803e3d6000fd5b505050506040513d601f19601f8201168201806040525081019061050091906107fa565b50505091505080915050919050565b828054828255906000526020600020908101928215610588579160200282015b828111156105875782518260006101000a81548173ffffffffffffffffffffffffffffffffffffffff021916908373ffffffffffffffffffffffffffffffffffffffff1602179055509160200191906001019061052f565b5b5090506105959190610599565b5090565b5b808211156105b257600081600090555060010161059a565b5090565b6000819050919050565b7f4e487b7100000000000000000000000000000000000000000000000000000000600052601160045260246000fd5b60006105fa826105b6565b9150610605836105b6565b925082820190508082111561061d5761061c6105c0565b5b92915050565b7f4e487b7100000000000000000000000000000000000000000000000000000000600052603260045260246000fd5b600061065d826105b6565b91507fffffffffffffffffffffffffffffffffffffffffffffffffffffffffffffffff820361068f5761068e6105c0565b5b600182019050919050565b7f4e487b7100000000000000000000000000000000000000000000000000000000600052604160045260246000fd5b600081905092915050565b50565b60006106e46000836106c9565b91506106ef826106d4565b600082019050919050565b6000610705826106d7565b9150819050919050565b600061071a826105b6565b9150610725836105b6565b9250828202610733816105b6565b9150828204841483151761074a576107496105c0565b5b5092915050565b600080fd5b600069ffffffffffffffffffff82169050919050565b61077581610756565b811461078057600080fd5b50565b6000815190506107928161076c565b92915050565b6000819050919050565b6107ab81610798565b81146107b657600080fd5b50565b6000815190506107c8816107a2565b92915050565b6107d7816105b6565b81146107e257600080fd5b50565b6000815190506107f4816107ce565b92915050565b600080600080600060a0868803121561081657610815610751565b5b600061082488828901610783565b9550506020610835888289016107b9565b9450506040610846888289016107e5565b9350506060610857888289016107e5565b925050608061086888828901610783565b915050929550929590935056fea2646970667358221220a7bd86771ecf8632ee4cde9e2addaa603eda65f7dc3d68edce405555fce6207a64736f6c63430008120033",
  "devdoc": {
    "kind": "dev",
    "methods": {},
    "version": 1
  },
  "userdoc": {
    "kind": "user",
    "methods": {},
    "version": 1
  },
  "storageLayout": {
    "storage": [
      {
        "astId": 58,
        "contract": "contracts/FundMe.sol:FundMe",
        "label": "pricefeed",
        "offset": 0,
        "slot": "0",
        "type": "t_contract(AggregatorV3Interface)45"
      },
      {
        "astId": 71,
        "contract": "contracts/FundMe.sol:FundMe",
        "label": "addressToAmountFunded",
        "offset": 0,
        "slot": "1",
        "type": "t_mapping(t_address,t_uint256)"
      },
      {
        "astId": 74,
        "contract": "contracts/FundMe.sol:FundMe",
        "label": "funders",
        "offset": 0,
        "slot": "2",
        "type": "t_array(t_address)dyn_storage"
      }
    ],
    "types": {
      "t_address": {
        "encoding": "inplace",
        "label": "address",
        "numberOfBytes": "20"
      },
      "t_array(t_address)dyn_storage": {
        "base": "t_address",
        "encoding": "dynamic_array",
        "label": "address[]",
        "numberOfBytes": "32"
      },
      "t_contract(AggregatorV3Interface)45": {
        "encoding": "inplace",
        "label": "contract AggregatorV3Interface",
        "numberOfBytes": "20"
      },
      "t_mapping(t_address,t_uint256)": {
        "encoding": "mapping",
        "key": "t_address",
        "label": "mapping(address => uint256)",
        "numberOfBytes": "32",
        "value": "t_uint256"
      },
      "t_uint256": {
        "encoding": "inplace",
        "label": "uint256",
        "numberOfBytes": "32"
      }
    }
  }
}